:100000000C9462000C948A000C948A000C948A0070
:100010000C948A000C948A000C9463050C948A005A
:100020000C948A000C948A000C948A000C948A0028
:100030000C948A000C948A000C948A000C948A0018
:100040000C94C1040C948A000C9431050C940B059B
:100050000C948A000C948A000C948A000C948A00F8
:100060000C948A000C948A000000000025002800EF
:100070002B000000000023002600290000000008DB
:10008000000201000003040700000000000000005F
:1000900000000000240027002A00010204081020AC
:1000A000408001020408102001020408102004040A
:1000B0000404040404040202020202020303030310
:1000C00003037A0511241FBECFEFD8E0DEBFCDBFFA
:1000D00012E0A0E0B1E0E6EFF8E102C005900D9279
:1000E000A031B107D9F722E0A0E1B2E001C01D9232
:1000F000A63EB207E1F710E0C2E6D0E004C02197C7
:10010000FE010E949B09C136D107C9F70E94410632
:100110000C94790C0C94000080E480937C00809116
:100120007A00806480937A0080917A0086FDFCCF0B
:1001300080917800909179000895833081F028F4BF
:10014000813099F08230A9F008958730A9F0883085
:10015000C9F08430B1F4809180008F7D03C080911C
:1001600080008F7780938000089584B58F7784BD59
:10017000089584B58F7DFBCF8091B0008F778093F9
:10018000B00008958091B0008F7DF9CFCF93DF93B9
:10019000282F30E0F901E458FF4F8491F901E65629
:1001A000FF4FD491F901E255FF4FC491CC23A1F048
:1001B00081110E949D00EC2FF0E0EE0FFF1FEE5822
:1001C000FF4FA591B491EC91ED2381E090E009F40B
:1001D00080E0DF91CF91089580E090E0FACF1F9307
:1001E000CF93DF93282F30E0F901E458FF4F84913B
:1001F000F901E656FF4FD491F901E255FF4FC49142
:10020000CC23A9F0162F81110E949D00EC2FF0E065
:10021000EE0FFF1FE859FF4FA591B4918FB7F894E7
:10022000EC91111108C0D095DE23DC938FBFDF91D4
:10023000CF911F910895DE2BF8CFCF93C82F60E0A8
:100240008091DE020E94EF001EBC00000DB407FE8C
:10025000FDCF8EB5CEBD00000DB407FEFDCF8EB52F
:1002600061E08091DE020E94EF0060E08091DE029A
:100270000E94EF008CE00CB405FC14C08EBD0000A1
:100280000DB407FEFDCF8EB51EBC00000DB407FEF9
:10029000FDCFCEB561E08091DE020E94EF008C2F91
:1002A000CF9108951EBC00000DB407FEFDCFCEB562
:1002B0008EBD00000DB407FEFDCF8EB5EBCFCF9302
:1002C000DF9390E0FC01E656FF4F249182559F4F4B
:1002D000FC0184918823D1F090E0880F991FFC01E4
:1002E000E057FF4FA591B491FC01E859FF4FC5912C
:1002F000D491623071F49FB7F8943C91822F80952D
:1003000083238C93E8812E2B28839FBFDF91CF918D
:1003100008958FB7F894EC912E2B2C938FBFF6CFC6
:10032000AF92BF92CF92DF92EF92FF920F931F9303
:10033000CF93DF936C017B018B01040F151FEB0141
:100340005E01AE18BF08C017D10759F06991D601F8
:10035000ED91FC910190F081E02DC6010995892B6A
:1003600079F7C501DF91CF911F910F91FF90EF9029
:10037000DF90CF90BF90AF900895FC01538D448DD6
:10038000252F30E0842F90E0821B930B541710F040
:10039000CF96089501970895FC01918D828D98174D
:1003A00061F0A28DAE0FBF2FB11D5D968C91928D25
:1003B0009F5F9F73928F90E008958FEF9FEF089556
:1003C000FC01918D828D981731F0828DE80FF11D1F
:1003D000858D90E008958FEF9FEF0895FC01918D3A
:1003E000228D892F90E0805C9F4F821B91098F7333
:1003F0009927089580E492E00E94EE0121E0892B84
:1004000009F420E0822F089580E090E0892B29F004
:100410000E94FA0181110C9400000895FC01A48D42
:10042000A80FB92FB11DA35ABF4F2C91848D90E016
:1004300001968F739927848FA689B7892C93A089F9
:10044000B1898C91837080648C93938D848D981383
:1004500006C00288F389E02D80818F7D8083089516
:10046000EF92FF920F931F93CF93DF93EC0181E004
:10047000888F9B8D8C8D98131AC0E889F9898081AB
:1004800085FF15C09FB7F894EE89FF896083E889DE
:10049000F98980818370806480839FBF81E090E0D0
:1004A000DF91CF911F910F91FF90EF900895F62E5D
:1004B0000B8D10E00F5F1F4F0F731127E02E8C8DF7
:1004C0008E110CC00FB607FCFACFE889F98980813C
:1004D00085FFF5CFCE010E940E02F1CFEB8DEC0F20
:1004E000FD2FF11DE35AFF4FF0829FB7F8940B8F59
:1004F000EA89FB8980818062CFCFCF93DF93EC01C3
:10050000888D8823B9F0AA89BB89E889F9898C91FB
:1005100085FD03C0808186FD0DC00FB607FCF7CFB7
:100520008C9185FFF2CF808185FFEDCFCE010E94B7
:100530000E02E9CFDF91CF9108954115510529F4BD
:10054000EAE7F0E080818F7780836A307105B9F047
:10055000CB01880F991F880F991F807267706860A0
:10056000682B88E10FB6F894A895809360000FBEC1
:1005700060936000E0E6F0E0808180648083232B5C
:10058000D9F483B7817F846083BFF89483B7816097
:1005900083BF85B7806685BF8F7D85BF789488953A
:1005A00083B78E7F83BF7894452B29F4EAE7F0E088
:1005B000808180688083089583B7817F846083BF52
:1005C000F89483B7816083BF7894889583B78E7FD2
:1005D00083BF7894E9CF0F931F93CF93DF93EC0100
:1005E0008C010B5F1F4F89918E3221F560E085E011
:1005F0000E94EF0030E020E050E040E061E070E079
:1006000089E192E00E949D0261E085E00E94EF0096
:1006100030E020E050E040E064E070E089E192E00A
:100620000E949D02C017D107F1F6DF91CF911F9173
:100630000F9108958D32B1F760E085E00E94EF00E0
:1006400030E020E050E040E064E070E089E192E0DA
:100650000E949D0261E085E00E94EF0030E020E012
:1006600050E040E061E070E0D9CFFC010190002053
:10067000E9F73197AF01481B590BBC0180E492E0C8
:100680000C9490018F929F92AF92BF920F931F9301
:10069000CF93DF93CDB7DEB7A1970FB6F894DEBF47
:1006A0000FBECDBF19A2423008F44AE08E010F5DA3
:1006B0001F4F842E912CB12CA12CA50194010E94D6
:1006C0002309E62FB901CA01EA30F4F4E05DD8014C
:1006D000EE938D01232B242B252B79F790E080E0DE
:1006E000109719F0CD010E943503A1960FB6F8942A
:1006F000DEBF0FBECDBFDF91CF911F910F91BF9095
:10070000AF909F908F900895E95CE1CFCF92DF92F8
:10071000EF92FF92CF93DF936B017C016DE280E457
:1007200092E00E943002EC0166277727CB016C191A
:100730007D098E099F094AE00E9442038C0F9D1F8C
:10074000DF91CF91FF90EF90DF90CF900895CF93FE
:10075000DF93BC01990F880B990B97FF0CC00E9487
:100760008603EC0182E391E00E9435038C0F9D1F0C
:10077000DF91CF9108954AE00E944203F2CFCF93D8
:10078000DF930E943503EC0182E391E00E94350380
:100790008C0F9D1FDF91CF9108958F929F92AF9202
:1007A000BF92CF92DF92EF92FF92CF93DF93EC0153
:1007B00085E391E00E943503CE010E9435038DE36D
:1007C00091E00E94350380E492E00E947D028FB7A1
:1007D000F8948090150290901602A0901702B090A5
:1007E00018028FBFD0E0C0E0CC24CA9483E0D82E9A
:1007F000E12CF12C2FB7F8948091150290911602FC
:10080000A0911702B09118022FBF88199909AA095F
:10081000BB0980339547A105B105D8F40E948C002F
:100820002FEF30E0DC010E948009A70196010E94B1
:10083000F908822FD22FC32F0E941D0130E020E043
:1008400050E040E063E070E089E192E00E949D02A8
:10085000D1CF8D2F9C2F0E94A7038D2F9C2FDF912E
:10086000CF91FF90EF90DF90CF90BF90AF909F908F
:100870008F900895DF92EF92FF920F931F93CF9383
:10088000DF937C018C01D0E0C0E0F801D1908F01B2
:10089000CE010E94E308D81621F06D2DCE010E94F2
:1008A000EB082196C632D10581F7C701DF91CF91C0
:1008B0001F910F91FF90EF90DF900895CF92DF92FC
:1008C000EF92FF920F931F93CF93DF93CDB7DEB7D5
:1008D000A6970FB6F894DEBF0FBECDBF89E00E9489
:1008E000C6008E010F5F1F4F6801F12CE12C892B90
:1008F00071F480E491E00E94BF0386E2F801119256
:100900008A95E9F7C8010E943A0480E026C0C70131
:100910000E94E308F60181936F01FFEFEF1AFF0ACF
:1009200086E2E816F10499F789819A81029721F508
:1009300088E591E00E94BF0380E492E00E947D027E
:1009400085E691E00E94EB0286E2F801AAE1B2E0BE
:1009500001900D928A95E1F781E0A6960FB6F89482
:10096000DEBF0FBECDBFDF91CF911F910F91FF90E2
:10097000EF90DF90CF9008958BE691E00E94BF0347
:10098000C4CF1F920F920FB60F9211242F933F9353
:100990008F939F93AF93BF9380911502909116020E
:1009A000A0911702B09118023091140226E0230F93
:1009B0002D3758F50296A11DB11D20931402809386
:1009C000150290931602A0931702B093180280911B
:1009D000100290911102A0911202B091130201969F
:1009E000A11DB11D8093100290931102A0931202D9
:1009F000B0931302BF91AF919F918F913F912F912F
:100A00000F900FBE0F901F90189529E8230F0396A3
:100A1000A11DB11DD2CF1F920F920FB60F921124BC
:100A20002F933F934F935F936F937F938F939F93F6
:100A3000AF93BF93EF93FF9380E492E00E940E0286
:100A4000FF91EF91BF91AF919F918F917F916F91A6
:100A50005F914F913F912F910F900FBE0F901F907C
:100A600018951F920F920FB60F9211242F938F9308
:100A70009F93EF93FF93E0915002F0915102808198
:100A8000E0915602F091570282FD1BC09081809147
:100A900059028F5F8F7320915A02821741F0E091C3
:100AA0005902F0E0E05CFD4F958F80935902FF9171
:100AB000EF919F918F912F910F900FBE0F901F90EC
:100AC00018958081F4CF1F920F920FB60F921124C8
:100AD0008F930FB6F894A8958091600088618093F9
:100AE0006000109260000FBE8F910F900FBE0F90AC
:100AF0001F901895CF93109243021092420288EEF5
:100B000093E0A0E0B0E08093440290934502A0936C
:100B10004602B093470284E291E0909341028093B1
:100B2000400285EC90E090934D0280934C0284EC5F
:100B300090E090934F0280934E0280EC90E090936F
:100B400051028093500281EC90E090935302809385
:100B5000520282EC90E0909355028093540286EC0E
:100B600090E090935702809356021092590210928F
:100B70005A0210925B0210925C028AE090E090931D
:100B8000DF028093DE0286E090E09093E3028093A0
:100B9000E20280E090E89093E1028093E00281E03D
:100BA0008093E4028093E502CFB7F8948091DD0250
:100BB000811127C0E8EBF0E08491E4EAF0E0949141
:100BC000E82FF0E0EE0FFF1FE057FF4FA591B49123
:100BD000EC91E92321F461E08AE00E94EF0061E0FA
:100BE0008AE00E945F018CB580618CBD8CB5806409
:100BF0008CBD61E08DE00E945F0161E08BE00E94AE
:100C00005F018091DD028F5F8093DD02CFBF61E0E5
:100C10008091DE020E945F018091E2029091E302E6
:100C2000811520E8920789F061E00E945F018091C0
:100C3000E2029091E302811520E8920731F061E031
:100C40000E94EF0081E08093E4028091E0029091A5
:100C5000E102811520E8920791F061E00E945F01B6
:100C60008091E0029091E1028115904841F061E0AD
:100C70008091E2020E94EF0081E08093E502CF9133
:100C80000895CF93DF93CDB7DEB7C054D1090FB627
:100C9000F894DEBF0FBECDBF789484B5826084BD6A
:100CA00084B5816084BD85B5826085BD85B5816070
:100CB00085BD80916E00816080936E0010928100EE
:100CC00080918100826080938100809181008160A9
:100CD000809381008091800081608093800080916A
:100CE000B10084608093B1008091B00081608093F6
:100CF000B00080917A00846080937A0080917A00BD
:100D0000826080937A0080917A008E7F80937A004F
:100D100080917A00806880937A001092C100E091FF
:100D20005002F091510282E08083E0914C02F091F8
:100D30004D021082E0914E02F0914F0287E68083CF
:100D400010925802E0915402F091550286E080839F
:100D5000E0915202F0915302808180618083E091A2
:100D60005202F0915302808188608083E0915202A8
:100D7000F0915302808180688083E0915202F0916B
:100D8000530280818F7D808381E891E00E94BF03C0
:100D900080E492E00E947D028AE891E00E94BF0315
:100DA00062E087E00E945F0162E088E00E945F01EC
:100DB00062E089E00E945F0161E085E00E945F01DE
:100DC00061E085E00E94EF000E945E048111BBC0DB
:100DD0008DE991E00E94BF0380E492E00E947D02D1
:100DE00088EB91E00E94EB0280E492E00E947D0299
:100DF00030E020E050E040E064E070E089E192E023
:100E00000E949D0230E020E050E040E061E070E0B0
:100E100089E192E00E949D0280E492E00E947D02BE
:100E20008EEB91E00E94EB0284EC91E00E94CD03F6
:100E30008C0180E492E00E947D0280ED91E00E94AE
:100E4000EB0286ED91E00E94CD03FE01379620E291
:100E5000DF011D922A95E9F722E030E03A832983E9
:100E60001C830B839E838D8360E0C62E61E0D62EAB
:100E70008F0180E492E00E947D0282EE91E00E9468
:100E8000EB02F601E190F1906F0188EE91E00E9493
:100E90003503B701FF0C880B990B97FF35C00E94F3
:100EA00086038DE391E00E9435038FB7F89480901C
:100EB000150290901602A0901702B09018028FBFF2
:100EC000F12CE12C2FB7F894809115029091160225
:100ED000A0911702B09118022FBF88199909AA0989
:100EE000BB098C379541A105B10590F40E948C0097
:100EF0007C0130E020E050E040E063E070E089E118
:100F000092E00E949D02DECF4AE00E944203C9CFD8
:100F1000D801ED92FD928D01C7010E94A703B0E2B6
:100F2000CB16B1E0DB0609F0A4CF80E492E00E948A
:100F30007D0285E691E00E94EB02CE0101960E94BF
:100F40003A040E945E0480E492E00E947D025AE02E
:100F5000252E312C0E948C007C01E0E2F2E010E0B2
:100F600000E021913191C80101962E153F052CF426
:100F7000208131812E153F052CF48C010F9789F7C4
:100F800010E000E087E00E94C6005C0188E00E945B
:100F9000C6006C01AB2809F4F9C08091220290913F
:100FA0002302E816F9060CF404C1E114F10409F473
:100FB00000C1F801EE0FFF1FE050FF4F80809180CD
:100FC000092C000CAA08BB08F801EE0FFF1FE05E19
:100FD000FD4F40805180052C000C66087708F80111
:100FE000EE0FFF1FEE5FFE4F20813181032E000CBC
:100FF000440B550B281939094A095B09B701FF0C45
:10100000880B990B64197509860997090E94540980
:10101000000F111FF801EE5DFD4F20813181032E7D
:10102000000C440B550B24193509460957090E9439
:10103000F908820E931EA41EB51E8401CD2831F43A
:101040006401C601B1010E9464098B0101151105FB
:1010500009F4B5C0A0911E02B0911F0298010E9430
:10106000780924EF31E040E050E00E94F90869017E
:101070007A01EFEFCE16D104E104F10411F00CF087
:1010800088C01C141D041E041F047CF480911C02E3
:1010900090911D02092E000CAA0BBB0BC816D90695
:1010A000EA06FB0614F46C017D01A0E1B7E2A7019A
:1010B00096010E9418092B013C012FEF30E040E01F
:1010C00050E00E94F90849015A018091E202909192
:1010D000E3021C141D041E041F040CF05FC08115E4
:1010E000F0E89F0731F061E00E94EF0081E080931B
:1010F000E4028C2D0E941D01C501B40128EE33E0ED
:1011000040E050E00E94F908CB01B1010E9464095F
:101110007F936F93C301B20128E134EE43E050E0C6
:101120000E94F9083F932F931F930F9385EF91E04F
:101130009F938F93E1E0F0E0EC0FFD1FFF93EF939F
:101140000E94A109CE0101960E94BF0380E492E0B3
:101150000E947D0230E020E050E040E064E070E07A
:1011600089E192E00E949D020FB6F894DEBF0FBEA7
:10117000CDBFA0E0B0E0AB2B09F4ECCE0E94FA01A9
:10118000882309F4E7CE0E940000E4CE00EB14E0CF
:1011900061CFC12CD12C7601CA9487CF811520E86C
:1011A000920709F4A9CF60E00E94EF001092E402D8
:1011B000A3CFC114D10409F444CF10E000E0C12C46
:1011C000D12C760172CFF999FECF92BD81BDF89AEC
:1011D000992780B50895262FF999FECF1FBA92BDA1
:1011E00081BD20BD0FB6F894FA9AF99A0FBE019608
:1011F0000895052E97FB1EF400940E94100957FDD8
:1012000007D00E94230907FC03D04EF40C94100968
:1012100050954095309521953F4F4F4F5F4F089522
:1012200090958095709561957F4F8F4F9F4F089552
:101230000E944509A59F900DB49F900DA49F800D1D
:10124000911D11240895A1E21A2EAA1BBB1BFD01BA
:101250000DC0AA1FBB1FEE1FFF1FA217B307E40795
:10126000F50720F0A21BB30BE40BF50B661F771FED
:10127000881F991F1A9469F76095709580959095CD
:101280009B01AC01BD01CF010895A29FB001B39FA6
:10129000C001A39F700D811D1124911DB29F700D7F
:1012A000811D1124911D0895DB018F939F930E944E
:1012B0001809BF91AF91A29F800D911DA39F900D22
:1012C000B29F900D1124089597FB072E16F40094F9
:1012D00007D077FD09D00E94870907FC05D03EF4AE
:1012E000909581959F4F0895709561957F4F0895D2
:1012F0000E944509332312F48A1B9B0B0C9482092C
:101300000E944509B7FF0895821B930B0895AA1BFD
:10131000BB1B51E107C0AA1FBB1FA617B70710F0E0
:10132000A61BB70B881F991F5A95A9F78095909512
:10133000BC01CD010895EE0FFF1F0590F491E02D43
:101340000994AEE0B0E0E7EAF9E00C94500C0D89A6
:101350001E8986E08C831A8309838FEF9FE79E8323
:101360008D83AE01475E5F4F6F89788DCE01019608
:101370000E94C4092F813885020F131FF8011082C3
:101380002E96E4E00C946C0CABE0B0E0EAECF9E0F3
:101390000C94420C7C013B018A01FC0117821682ED
:1013A000838181FFC8C1CE0101965C01F701938161
:1013B000F30193FD859193FF81913F01882309F407
:1013C00053C1853239F493FD859193FF81913F019B
:1013D000853229F4B70190E00E94B40BE7CF912C3D
:1013E000212C312CFFE1F31538F08B3211F190F400
:1013F000803209F1833229F137FC3CC020ED280FFF
:101400002A3050F536FE20C08AE0989E200D112427
:10141000922E06C08D3291F0803371F7689430F8C7
:10142000F30193FD859193FF81913F018111DACF03
:1014300021C0689431F8689432F8F2CF689433F898
:10144000EFCF689434F8ECCFEAE02E9E200D112403
:10145000222E689435F8E4CF8E3229F436FC04C18C
:10146000689436F8DDCF8C3619F4689437F8D8CF05
:101470008836B1F2982F9F7D95549330E0F08336F3
:10148000A1F18337C1F1833509F063C02801F2E08F
:101490004F0E511CF801C080D180692D70E036FCE0
:1014A00002C06FEF7FEFC6010E949E0B4C01689453
:1014B00037F882010AC00C5F1F4FFFE3F9838824CD
:1014C0008394912C6501E89437F833FE2DC0522C9B
:1014D0008114910471F5552009F468CFB70180E2B9
:1014E00090E00E94B40B5A94F6CFF8018081898372
:1014F0000E5F1F4FE4CF2801F2E04F0E511CF801A0
:10150000C080D180692D70E036FC02C06FEF7FEFA4
:10151000C6010E94A90B4C018201D5CFB70180E220
:1015200090E00E94B40B2A942814190409F0B0F733
:10153000CECFF60137FC859137FE81916F01B7015F
:1015400090E00E94B40B51105A94F1E08F1A910868
:10155000BFCF843619F0893609F077C0F80137FE1D
:101560006BC060817181828193810C5F1F4FF32D6D
:10157000FF763F2E97FF09C09095809570956195F5
:101580007F4F8F4F9F4F689437F82AE030E0A501D6
:101590000E94E40BC82ECA188C2C432C36FE0CC0BB
:1015A000E89440F8C91440F434FE05C032FC03C08E
:1015B000F32DFE7E4F2E892C44FE95C0FE01EC0DCE
:1015C000F11D8081803309F087C0242D297E422EB1
:1015D000842D8870582E43FC95C040FE8FC09C2CF3
:1015E000821418F42C0C922C981844FE91C0B70168
:1015F00080E390E00E94B40B42FE09C088E790E0CF
:1016000041FE02C088E590E0B7010E94B40BC91406
:1016100008F48AC0CA94D12C9FEFC91AD90ACA0CFF
:10162000DB1CF60182916F01B70190E00E94B40BC0
:10163000AC14BD04B1F74FCF60817181072E000C4F
:10164000880B990B0E5F1F4F92CFD32CE894D4F8E0
:101650002AE030E0853739F1232D297FD22E8F36CD
:1016600001F148F48835A9F0F701868197812B961E
:10167000E2E10C945E0C803749F08837A9F7D4FE7C
:1016800002C06894D2F820E130E00DC06894D4F82C
:10169000F6CF34FE03C0822F8660D82E20E132E0E0
:1016A00002C028E030E0F801D7FE0FC060817181F0
:1016B000828193810C5F1F4FA5010E94E40BC82E0D
:1016C000CA183D2CE89437F867CF6081718190E0AB
:1016D00080E00E5F1F4FF0CF42FC02C0839478CFB2
:1016E0008394839475CF842D867809F471CFF6CFD7
:1016F000B70180E290E00E94B40B83948214C0F39F
:10170000512C73CF522C5818821408F46ECFF8CF96
:10171000842D867809F47BCF8BE241FE80E247FC82
:101720008DE2B70190E071CFB70180E390E00E94B5
:10173000B40B9A946CCF8FEF9FEF99CFFC0105907B
:10174000615070400110D8F7809590958E0F9F1FC3
:101750000895FC016150704001900110D8F7809508
:1017600090958E0F9F1F08950F931F93CF93DF9334
:10177000182F092FEB018B8181FD09C01FEF0FEF9F
:10178000812F902FDF91CF911F910F91089582FFAC
:1017900014C02E813F818C819D81281739073CF42C
:1017A000E881F981CF0101969983888310838E8126
:1017B0009F8101969F838E83E3CFE885F985812FF2
:1017C0000995892BA1F3DACFFA01AA27283051F124
:1017D000203181F1E8946F936E7F6E5F7F4F8F4F62
:1017E0009F4FAF4FB1E03ED0B4E03CD0670F781FC1
:1017F000891F9A1FA11D680F791F8A1F911DA11DA6
:101800006A0F711D811D911DA11D20D009F46894DE
:101810003F912AE0269F11243019305D3193DEF686
:10182000CF010895462F4770405D4193B3E00FD03C
:10183000C9F7F6CF462F4F70405D4A3318F0495D27
:1018400031FD4052419302D0A9F7EACFB4E0A6950A
:101850009795879577956795BA95C9F7009761052C
:10186000710508959B01AC010A2E06945795479582
:1018700037952795BA95C9F7620F731F841F951F77
:10188000A01D08952F923F924F925F926F927F9288
:101890008F929F92AF92BF92CF92DF92EF92FF9280
:1018A0000F931F93CF93DF93CDB7DEB7CA1BDB0B2C
:1018B0000FB6F894DEBF0FBECDBF09942A883988D1
:1018C00048885F846E847D848C849B84AA84B984D8
:1018D000C884DF80EE80FD800C811B81AA81B981E4
:1018E000CE0FD11D0FB6F894DEBF0FBECDBFED01F8
:0618F0000895F894FFCFFB
:1018F60000000C0014001F00280032003F005000BA
:1019060064007D00A000C800FA003B019001F401CC
:101916000000000030029001BD017D02EE01CC0105
:10192600E0010D0A00636F6E6669672E003A2000BB
:10193600726573657474696E6720636F6E66696736
:1019460075726174696F6E0076616C696420636F8D
:101956006E666967002E2E2E2E2E00696E76616CDD
:10196600696420636F6E66696775726174696F6E0C
:10197600007374617274696E670073657474696E5E
:101986006720757020627574746F6E7300696E6976
:101996007469616C697A696E6720636F6E666967E0
:1019A60075726174696F6E002D2E2E2E2D002D2EF0
:1019B6002E2D2E0064696769706F745F6D696E0005
:1019C6002D2E2E2D2D0064696769706F745F35307A
:1019D60030002D2E2D2E2E00636F6E6669672E66E3
:1019E6006565645F0066723A202534646D6D2F6DFF
:1019F600696E202F202531642E2530326456000072
:00000001FF
